:1000000000000320D1010000B11900007D1900009B
:100010007D1900007D1900007D1900007D19000088
:100020007D1900007D1900007D190000B119000044
:10003000B11900007D190000B11900006D19000010
:10004000B1190000B1190000B1190000B119000088
:10005000B1190000B1190000B1190000B119000078
:10006000B1190000B1190000B1190000B119000068
:10007000B1190000B1190000B1190000B119000058
:10008000B1190000B1190000B1190000B119000048
:10009000B1190000B1190000B1190000B119000038
:1000A000B1190000B1190000B1190000B119000028
:1000B000B1190000B1190000B1190000BD20000005
:1000C000B119000099270000B1190000AD2C000003
:1000D000B119000039320000B1190000B119000057
:1000E000B1190000B1190000B1190000B1190000E8
:1000F000B1190000B1190000B1190000B1190000D8
:10010000B1190000B1190000B1190000B1190000C7
:10011000B11900007D080000B1190000B1190000FC
:10012000B1190000B1190000B1190000B1190000A7
:10013000B1190000B1190000B1190000B119000097
:10014000B1190000B119000015370000B119000005
:10015000B1190000B1190000B1190000B119000077
:10016000B1190000B1190000B1190000B119000067
:10017000B1190000B1190000B1190000B119000057
:10018000B1190000B1190000B1190000B119000047
:10019000B1190000B1190000C13C0000B119000004
:1001A000B1190000B1190000B1190000B119000027
:1001B000B1190000B1190000B1190000B119000017
:1001C000B1190000B1190000B1190000B119000007
:1001D0005C4B4CF2205210B51A804DF628121A8052
:1001E00000BF00BF01F0E8FB574B4FF030621A60D0
:1001F000564A9A60564ADA60564B4FF470021A60BB
:10020000554B564A1A60564B1A6812F4807204D144
:1002100054490A604FF4A8521A60534B1A781107D8
:1002200003D51A7842F008021A70504BAA221A70AD
:1002300000234F4A4F499818884204D24E495958D2
:1002400099500433F5E74D4A4D4B9A424FF0000365
:1002500002D242F8043BF7E74A494B4A59589950B1
:100260000433B3F5E87FF7D1484B802103F8011B35
:1002700047498B42F9D1474B1A60474B8A221A7083
:10028000A3F5805324225A70A0221A709A799207FB
:10029000FCD59A79D406FCD4404B9B7903F00C032F
:1002A000082BF9D13E4B60221A703E4B1B78802BF5
:1002B000FBD13A4B01221A715D225A719A7990064C
:1002C000FCD59A795106FCD5374B384A1A60002282
:1002D0005A60324B20221A70304B9B7903F00C038A
:1002E0000C2BF9D1324B334A1A60334B334A1A6024
:1002F00000225A60072243F8042C314AC3F80C2D1F
:1003000062B600F06DF9174B1B68DA0705D52D486A
:1003100000F0CEF82C4B2D4A1A602D4B1B785B0653
:1003200009D5294C294A2368934204D1254800F075
:10033000BFF80023236003F0ABFD01F043FB00F0A6
:10034000AFF8FEE70E20054030800440823F0400F5
:100350000100002B88ED00E0002008E0030000858C
:1003600010D0034014D0034002D0074000E0074003
:100370006007FF1F1008FF1FDC4300001008FF1F6D
:10038000980CFF1F000000000002FF1F00E400E0C7
:1003900064E400E008ED00E0005006400040064044
:1003A00001E0074003E007404480044000000602EB
:1003B00004800440C010070014E000E01FBF0200EA
:1003C000000020205A322A591CE00340A5C3945A49
:1003D00000F00740FFFFFFFFFFFFFFFFFFFFFFFFF2
:1003E000FFFFFFFFFFFFFFFFFFFFFFFFFFFFFFFF1D
:1003F000FFFFFFFFFFFFFFFFFFFFFFFFFFFFFFFF0D
:10040000FFFFFFFFFFFFFFFFFFFFFFFFDEF9FFFF23
:1004100010B5054C237833B9044B13B10448AFF33E
:1004200000800123237010BD1008FF1F0000000092
:10043000DC43000008B5064B1BB106480649AFF384
:1004400000800648036813B1054B03B1984708BD07
:1004500000000000DC4300001408FF1F1008FF1F0D
:1004600000000000024B0121187800F051B800BFD5
:100470006007FF1F10B5094C0121207800F028F813
:100480004FF47A7000F096F82078002100F020F800
:100490004FF47A70BDE8104000F08CB86007FF1F81
:1004A00008B5FFF7DFFFFFF7E5FF00F0A7FEFAE76B
:1004B000044B054900221A600A60044A10601022A9
:1004C0001A60704714D0034004D0034000D00340AA
:1004D0003F2810B518D80D4A52F8303093F88042B2
:1004E0003CB1012211B183F8802010BD83F80021B6
:1004F00010BD02EBC00043681A6811B142F003025C
:1005000001E022F002021A6010BD00BFEC3E0000C4
:100510003F2810B52BD8164A02EBC00301295B68AF
:10052000144601D004290FD154F83020012082F85C
:1005300080024FF4A2721A601A6804290CBF42F0BC
:10054000200222F0200211E052F83000002280F850
:10055000802211B94FF4807208E0022902D140F2E2
:10056000031203E0032908BF4FF481721A6010BD23
:10057000EC3E000072B60C4B0C491A680C4B1B6821
:10058000096862B6490102D5322A88BF0133C2F533
:100590002F32B42102F21F32B2FBF1F24FF47A7023
:1005A00000FB0320704700BF18E000E004ED00E00E
:1005B0002C08FF1F38B50446FFF7DCFF054624B9B9
:1005C00038BD013C0AD005F57A75FFF7D3FF401B13
:1005D000B0F57A7FF5D200F011FEF6E738BDFFFFE7
:1005E000374B38494FF0006270B51A604FF08052B7
:1005F0001A604FF000521A604FF080421A604FF0BC
:1006000000421A60304B314D314C324E00224EF6D2
:10061000FF701A60586028230B608B600B618B6140
:100620000B628B620B638B63103101F501212B6030
:1006300023600B608B600B618B610B628B62092105
:10064000316006F58056043632607060B360336105
:1006500046F8041C06F5FE2632607060B360336114
:1006600046F8041C06F58056326070601A482B600C
:10067000236001601949086840F40070086051F86F
:10068000280C40F0007041F8280C283901F50121B0
:100690000A60134A47F6FF7111605360D360114B33
:1006A00008221A6001F006F93220FFF783FF00F0FC
:1006B000E3FB4FF4AF70BDE87040FFF77BBF00BFB6
:1006C00004E100E00C800340048003400C900B40E8
:1006D00014900B400080034000900B402C8004409D
:1006E00008900C4000900C40F0B50C4B0C4C1A7864
:1006F00042F0020504EBC50682F001027060094871
:100700001A700678002E0CBF8827C82786F00106CD
:1007100047EA0141067044F83510F0BD9808FF1F04
:100720000000FF1F1009FF1F431E032B10B510D838
:1007300072B6094A52F8230048B1416842F82310C2
:10074000064A018832F81340611A22F8131062B683
:1007500010BD002010BD00BF8808FF1F840CFF1FC4
:10076000013803280AD872B6054B53F82030002010
:1007700013B101305B68FBE762B670470020704739
:10078000DC08FF1F10B572B60123174A1A4412F88D
:10079000012C12071CD59900144A52F831402CB98B
:1007A00002EB431308305860114B09E041F001019E
:1007B00052F8314064B902EBC103083058600D4B68
:1007C00042F831300C4B1A78013A1A7062B610BDFB
:1007D0000133052BD9D162B6074B00221A70BDE850
:1007E000104000F0B7BB00BF304300000000FF1F07
:1007F00088004000C80040000609FF1F431E032B6D
:1008000030B532D8194A400140F01000104472B699
:10081000174CE25C032A09D8DFE802F0160218053B
:100820000830022213E00830042210E01148124A76
:1008300050F8234014B940F8231002E052F8230086
:10084000416042F823100FE0032200E00522E25449
:1008500010F0080F01F108030A8843600CBF8823D9
:10086000C82343EA0243036062B630BD0000FF1FA5
:100870004408FF1FDC08FF1FEC08FF1F2DE9F84F9D
:10088000AB4F3C78E4B214F0040F3D4619D0A94BAD
:100890001B78A3B1A84A117801F0FF0321B1013BF5
:1008A000DBB2137003B900BEA44A117801F0FF0354
:1008B00029B1013BDBB213700BB900F07BFC0423C0
:1008C0003B7004F0080303F0FF02002B00F0678286
:1008D0009B4B9C4C1A78D2B215094FEA920840F013
:1008E000E48104EBC803596854F83830C3F3830338
:1008F000013B0C2B00F2D681DFE813F09501950146
:10090000D401D401D401D401D401D401B001D40163
:10091000D401D4010D008C4D0A684B688B486B6084
:1009200001218B4B44F838302A60DFF85082017087
:1009300092B240F2816000238242C8F80030236105
:10094000A36117D8B2F5D06F80F01E81B2F5817F18
:1009500000F0CF8006D8802A00F0BA80822A00F00A
:10096000BB8031E140F202339A4200F0D180B2F50F
:10097000A06F1CE042F22100824200F051810ED8AB
:10098000B2F5086F00F09E80B2F5106F40F01C8148
:10099000684B6C4EAA781A7006F180090AE042F2A0
:1009A00021218A4200F0088142F221339A4200F06C
:1009B0000F8109E1336A1B0603D5706A083800F01D
:1009C000C9FA08364E45F5D10026B146DFF8B0A188
:1009D00056F80A0028B1D0F804B000F0BBFA584627
:1009E000F8E74AF806005B4BDFF898A1F05056F89C
:1009F0000A0028B1D0F804B000F0ACFA5846F8E785
:100A0000554B4AF80600F050544B23F81900544B4C
:100A100019F80320023A032A08D8DFE802F002049A
:100A20000204002200E0012203F8092009F1010973
:100A3000B9F1040F06F10406C8D14A4B00221A701E
:100A400001269A46484A494B3244334412F8012C55
:100A50009B0012F0080F1A704FEA860925D000F0AB
:100A60005BFA38B104EB461308305860404B44F849
:100A7000393006E09AF8003044F8390001338AF83A
:100A8000003000F049FA49F0010338B104EBC30229
:100A9000083050602E4A44F8332006E044F8330012
:100AA0009AF8003001338AF8003049F0020201362A
:100AB00049F003090023052E44F8323044F8393058
:100AC000C0D186E01B4B2B4C1B7823700B4683E078
:100AD000284C237063707EE0AA88042A74D8254CC1
:100AE000920023706370244B9B5C9E0773D521702A
:100AF00071E0AA8802F07F02042A65DC6B88002B73
:100B000062D191001C4A0A44117821F0020159E097
:100B1000AA8802F07F02042A56DC6B88002B53D18E
:100B20009100154A0A44117841F002014AE000BFE1
:100B3000802007400F09FF1F9908FF1F1109FF1FA1
:100B4000902007400000FF1FFC08FF1F1009FF1F37
:100B5000C80040003408FF1FEC08FF1F840CFF1F73
:100B60004408FF1F0609FF1F3043000030C8011072
:100B7000880040000709FF1FC02007403008FF1F02
:100B80008808FF1FDC08FF1F6A88A9889F4B53F85D
:100B9000084CA3F10C00BCB133F80C6C964209D19F
:100BA00033F80A6C8E4205D1120A032A0CBF23784F
:100BB000038911E00C33EAE7954A1168954A116000
:100BC000A978954A117004E0944B0F221A7027E01F
:100BD00000231C4600E00223EE88B34238BF1E46C5
:100BE000402E34BF3546402520462946FFF77CFD80
:100BF000761B2C4403D1402D12D1354603E0402E04
:100C000034BF3546402520462946FFF76DFD761B4B
:100C10002C4401D1402D03D1814AC8F800401680F0
:100C20000122804B3DE0804B1A8842F221039A4218
:100C300010D100237D4AC85C98540133072BF9D1A9
:100C40001368862B02D17A4B0F221A7000200146BE
:100C5000FFF74AFD774B44F8383023E0764E35688D
:100C6000B5B1DFF8BC81B8F80090B9F1400F34BFDE
:100C70004C46402428462146FFF736FDC4EB0903C5
:100C80009BB2A8F800300BB9402C00D12B1933606F
:100C9000654B1A88B2F5A06F04D100225A709A7879
:100CA000664B1A7001225F4B6CE004EBC806013DF5
:100CB000736802F00802A3F10800EDB202F0FF0130
:100CC000002A36D000F046F95D485E4B50F82520EA
:100CD000EAB1516840F8251002F108017160595DD0
:100CE00003290BD8DFE801F002040608032104E021
:100CF000022102E0052100E00421595516F0080FF9
:100D000012880CBF8823C82343EA024342E05A5D9D
:100D1000032A07D8DFE802F040400204002206E080
:100D2000012204E016F0080F0CBF022203225A55DC
:100D300032E054F83820120C23F8082C22B3DFF8E4
:100D400034E123F8061C43F8041C5EF825303E49C4
:100D500013B94EF8250002E051F8253058603B4B9E
:100D600041F8250033F815100A4423F8152000F047
:100D7000D3F810B10830706006E0354B44F8380005
:100D80001A7801321A7007E02A4B324A16F0080F1F
:100D900008BF134644F8383008233B7070E5E0077D
:100DA0001FD520492B482C4C02230B702B4B1A705B
:100DB0002B4B186098602B48D8601A619A615C6070
:100DC000164B0D2018702848FF2303702B700274F7
:100DD000264A1370264B9F221A7001230B70BDE820
:100DE000F88F210604D50D4B0D221A7080232B702D
:100DF000A20705D51C4B1A78D2B21A7002232B70A9
:100E0000E30644BF10232B70BDE8F88F4043000079
:100E10002C08FF1F940CFF1F2009FF1FC020074054
:100E20000409FF1F94200740FC08FF1F8C0CFF1FC4
:100E30009908FF1FC80040003008FF1F9820074096
:100E4000DC08FF1F4408FF1F3408FF1F840CFF1F2E
:100E50000609FF1F880040004808FF1F9808FF1F71
:100E60000000FF1F9C08FF1F882007408C200740C0
:100E7000842007408808FF1F08B502F08FFF00227A
:100E8000204B0021D15098180832882A4160F7D1B0
:100E90001D4A106840F4802010601C4A106840F021
:100EA0004070106002F5C92202F5A2720320107092
:100EB000A02002F8040CC3F3072002F8A80CC3F327
:100EC00007401B0E02F8940C02F8903CFF2302F836
:100ED000C43C02F8BC3CA83A02F88C3C012302F85E
:100EE000083C82F8641002F8183C094B70226FF439
:100EF0004C711A700B444FF400121A60054B10220B
:100F00001A7008BD0000FF1F3480044000D8004064
:100F100035E400E00821074072B60C4A1168B1FAC6
:100F200081F30B2B02D962B6002070474FF00040CE
:100F3000D84021EA0001116062B6054948225343B6
:100F4000C8180022CA504260704700BF6407FF1FE4
:100F50000004FF1F0C4B4822C31AB3FBF2F30B2B08
:100F600011D80A4A127822B1094A12780AB1FFF759
:100F700009BC72B6074A4FF0004121FA03F3116829
:100F80001943116062B670470004FF1F0609FF1F76
:100F90000F09FF1F6407FF1F10B5104C23686BB1CA
:100FA00020684288531C0244147A0288934212D368
:100FB000FFF7D0FF094B00221A600DE0084B1B78A9
:100FC00013B94FF0FF3010BD0320FFF7ADFB2060D9
:100FD0000028E5D1F5E74380204610BD1C09FF1F1E
:100FE0000F09FF1F10B50B4C236813B123686BB9B1
:100FF00002E0094B1B7813B94FF0FF3010BD0320FE
:10100000FFF792FB20600028F0D1F5E75A881344DF
:10101000187A10BD1C09FF1F0F09FF1F044B988889
:10102000044B1B681BB11A885B88D31A184470479D
:10103000840CFF1F1C09FF1F10B5094B1B786BB1F7
:10104000084C206818B1FFF785FF002323600320B8
:10105000FFF76AFB10B1FFF77DFFF8E710BD00BF97
:101060000F09FF1F1C09FF1F2DE9F0472E4E01231A
:101070000746894633700C46002C50D02B4D2B6808
:10108000AA462BBBDFF8B480294B1B7803F0FF0284
:101090000BB9327015E00420FFF762FB072808D86F
:1010A00001233370FFF738FFCAF8000080B91E4BE8
:1010B0001870B8F101081F4B01D01A782AB101222B
:1010C0001A704FF0FF30BDE8F08700F097F8DBE7CB
:1010D000184B00221A702B685888C0F140018C42CE
:1010E00038BF214600F1080C08449C445880641A1B
:1010F0008A4204D0B85C0CF802000132F8E71744C9
:101100005A883F2A07D940221A8019460420FFF73F
:1011100075FB00232B60084B05221A70ACE7347076
:101120004846BDE8F08700BF1209FF1F1409FF1FE2
:101130000F09FF1F1809FF1F1109FF1F2148010098
:1011400007B502AB012103F8010D1846FFF78CFF2C
:1011500003B05DF804FBFFFF2DE9F041114B1B7854
:10116000F3B1114E114B3468114D01271F70984691
:101170004CB1002763882F70042023802146FFF79D
:101180003DFB376009E0FFF7C7FE014620B10420B0
:101190002C70FFF733FB00E02F70002388F800303D
:1011A000BDE8F0810F09FF1F1409FF1F1209FF1F7F
:1011B0001109FF1F38B50E4B1B7803F0FF05ABB9C3
:1011C0000C4C216831B14B880B800420FFF716FBD3
:1011D000256038BDFFF7A0FE014620B10420BDE820
:1011E0003840FFF70BBB044B01221A7038BD00BF1B
:1011F0001209FF1F1409FF1F1109FF1F10B5154C1D
:10120000237833BB01232370FFF708FF08B102F0F6
:1012100012FE00F0DDFE08B100F098F801F046FA89
:1012200008B100F01DF901F0DDFC08B100F0A2F9F1
:1012300001F09EFF08B100F027FA02F007FA08B1AA
:1012400000F0ACFA02F0D8FC08B100F024FB002357
:10125000237010BD2109FF1F08B50368C9B21B68C0
:10126000984708BD08B50368C9B21B68984708BD10
:1012700008B50368C9B21B68984708BD08B503687C
:10128000C9B21B68984708BD034800EB5100B0FB8A
:10129000F1F000F0EFBB00BF002A751510B506484D
:1012A00000EB51001446B0FBF1F000F0E3FB2046E8
:1012B000BDE8104000F052BC002A751500F084BC57
:1012C000084600F0E7BC084600F042BD084611465B
:1012D00000F0FCBC08B5084600F06EFD003018BFF9
:1012E000012008BD08B5084600F088FD003018BF91
:1012F000012008BD00F06CBE00F0A4BE00F078BE76
:1013000000F04ABE00F0B6BE00F050BE08B5084678
:1013100000F09AFD012008BD08B5084600F094FDD4
:10132000012008BD10B508461446114600F0D6FD50
:10133000204610BD38B508460D4602F0CFFD0446E4
:101340002146284600F0CAFD204638BD7047FFFF01
:10135000044B00221A714FF47A711A73024A996091
:101360001A6070472409FF1FF840000008B50368A1
:10137000C9B21B68984708BD08B50368C9B21B68A5
:10138000984708BD08B50368C9B21B68984708BDEF
:1013900008B50368C9B21B68984708BD034800EB4D
:1013A0005100B0FBF1F000F00DBF00BF002A751531
:1013B00010B5064800EB51001446B0FBF1F000F008
:1013C00001FF2046BDE8104000F060BF002A7515FF
:1013D00000F092BF084600F0E3BF084601F032B8C3
:1013E0000846114600F0F8BF08B5084601F052F86B
:1013F000003018BF012008BD08B5084601F06CF8A0
:10140000003018BF012008BD01F050B901F088B9C3
:1014100001F05CB901F02EB901F09AB901F034B9CC
:1014200008B5084601F07EF8012008BD08B5084659
:1014300001F078F8012008BD10B5084614461146A1
:1014400001F0BAF8204610BD38B508460D4602F046
:1014500045FD04462146284601F0AEF8204638BD39
:101460007047FFFF044B00221A714FF47A711A7310
:10147000024A99601A6070473409FF1F5841000002
:1014800008B50368C9B21B68984708BD08B503686A
:10149000C9B21B68984708BD08B50368C9B21B6884
:1014A000984708BD08B50368C9B21B68984708BDCE
:1014B000034800EB5100B0FBF1F001F0F1B900BFBF
:1014C000000E270710B5064800EB51001446B0FB8C
:1014D000F1F001F0E5F92046BDE8104001F020BA36
:1014E000000E270701F052BA084601F083BA0846F9
:1014F00001F0C4BA0846114601F098BA08B508468A
:1015000001F0BEFA003018BF012008BD08B508463A
:1015100001F0D8FA003018BF012008BD01F062BB0D
:1015200001F09ABB01F06EBB01F040BB01F0ACBB17
:1015300001F046BB08B5084601F0E2FA012008BDFB
:1015400008B5084601F0DCFA012008BD10B50846D0
:101550001446114601F01EFB204610BD38B5084662
:101560000D4602F0BBFC04462146284601F012FB62
:10157000204638BD7047FFFF044B00221A714FF41C
:101580007A711A73024A99601A6070474409FF1F02
:10159000B841000008B50368C9B21B68984708BD88
:1015A00008B50368C9B21B68984708BD08B5036849
:1015B000C9B21B68984708BD08B50368C9B21B6863
:1015C000984708BD034800EB5100B0FBF1F001F073
:1015D000D5BB00BF000E270710B5064800EB510031
:1015E0001446B0FBF1F001F0C9FB2046BDE8104005
:1015F00001F024BC000E270701F056BC084601F09C
:10160000A7BC084601F0F6BC0846114601F0BCBC78
:1016100008B5084601F016FD003018BF012008BDCE
:1016200008B5084601F030FD003018BF012008BDA4
:1016300001F09EBD01F0D6BD01F0AABD01F07CBD58
:1016400001F0E8BD01F082BD08B5084601F01EFDBD
:10165000012008BD08B5084601F018FD012008BDAD
:1016600010B508461446114601F05AFD204610BD3B
:1016700038B508460D4602F031FC0446214628469E
:1016800001F04EFD204638BD7047FFFF044B00229D
:101690001A714FF47A711A73024A99601A6070478E
:1016A0005409FF1F1842000008B50368C9B21B683F
:1016B000984708BD08B50368C9B21B68984708BDBC
:1016C00008B50368C9B21B68984708BD08B5036828
:1016D000C9B21B68984708BD034800EB5100B0FB36
:1016E000F1F001F011BE00BF000E270710B506484B
:1016F00000EB51001446B0FBF1F001F005FE20466E
:10170000BDE8104001F040BE000E270701F072BE98
:10171000084601F0A3BE084601F0E4BE08461146A3
:1017200001F0B8BE08B5084601F0DEFE003018BF73
:10173000012008BD08B5084601F0F8FE003018BFCA
:10174000012008BD01F082BF01F0BABF01F08EBFD9
:1017500001F060BF01F0CCBF01F066BF08B50846DC
:1017600001F002FF012008BD08B5084601F0FCFEAB
:10177000012008BD10B508461446114601F03EFF91
:10178000204610BD38B508460D4602F0A7FB0446BA
:101790002146284601F032FF204638BD7047FFFF42
:1017A000044B00221A714FF47A711A73024A99603D
:1017B0001A6070476409FF1F7842000008B503688B
:1017C000C9B21B68984708BD08B50368C9B21B6851
:1017D000984708BD08B50368C9B21B68984708BD9B
:1017E00008B50368C9B21B68984708BD084601F0F0
:1017F000F9BF10B50846144601F0F4FF2046BDE8D5
:10180000104002F093B802F0CBB8084602F0FCB8E2
:10181000084602F03DB90846114602F011B908B574
:10182000084602F037F9003018BF012008BD08B59E
:10183000084602F051F9003018BF012008BD02F03F
:10184000DBB902F013BA02F0E7B902F0B9B902F05D
:1018500025BA02F0BFB908B5084602F05BF90120CD
:1018600008BD08B5084602F055F9012008BD10B5BD
:1018700008461446114602F097F9204610BD38B5C7
:1018800008460D4602F02AFB04462146284602F08F
:101890008BF9204638BD7047044B00221A714FF473
:1018A0007A711A73024A99601A6070477409FF1FAF
:1018B000D842000010B5204B2048214960221A7000
:1018C000E1225A701F4B204A1C78204B082C01D172
:1018D000212402E00A2C03D139240460132005E0FE
:1018E0000C2C0CBF35245D240460122008601460A9
:1018F0001860174B17491B78174A03B101230B6077
:101900001360164B164A1978164B012901D880210D
:101910000BE0042901D8842107E0082901D885219A
:1019200003E0102994BF86218721116019600E4BB6
:1019300001221A7010BD00BF0040074008B00340EC
:101940000CB003406807FF1F08B00B400CB00B4001
:101950008509FF1F20B0034020B00B406907FF1F1F
:1019600024B0034024B00B408409FF1F024B1A68C7
:1019700001321A60704700BF2C08FF1F08B50B4CDE
:101980002368580301D5FEF779FF2368590501D56F
:1019900000F094FB23681A0501D500F0FDFE2368D2
:1019A000DB04ECD501F082F9E9E700BF34800440A4
:1019B00008B5FFF7E3FFFFFF014B10221A807047C5
:1019C000002005407047FFFFEFF31383ABB9EFF33F
:1019D0001083ABB9EFF3058323B10F2B05D9094A67
:1019E000985C03E04FF4807000E00020EFF3118377
:1019F0003BB1834238BF184670474FF0FF30704705
:101A000000207047F0E300E00A4B1A78802A0CD1DE
:101A1000094A0A49116002F5573202F2BD3200212B
:101A200011701A78802AFCD001E000207047012054
:101A3000704700BF03E007404480044000002822B4
:101A4000094B1A78012A0DD102F1804202F5FC22DD
:101A5000602111701A78802AFCD1044B044A1A6064
:101A6000012070470020704703E007404480044095
:101A700000000602294B1A6842F480621A60284A64
:101A800000231370274A1370274A1370274A1370D4
:101A9000274A1370274B1B78152B06D01B2B08D019
:101AA0005BB940F21332244B06E040F21332234B71
:101AB00002E0234B40F213321A60224B1B78052BB5
:101AC00007D01A2B09D0012B0BD14FF451721E4BAA
:101AD00006E04FF451721D4B02E01D4B4FF4517262
:101AE0001A601C4BC0F344321A70C0F347125A708C
:101AF00000F01F000422022198729A70D9745A755E
:101B000088221A743C22DA70134B40221A70A3F216
:101B10001F334FF000421A60704700BF348004400A
:101B20000F0AFF1F8D09FF1F180AFF1F100AFF1F52
:101B30008C09FF1FCE09FF1F40A0044018C00440BD
:101B40003C9004406A07FF1F44A004401CC00440AE
:101B50003890044000A006401FE400E0194A937842
:101B600000F0030103F0EC030B43410748BF43F0CF
:101B70001003937000F00F03042B124903D18B79EB
:101B800043F040038B7152790E4B02F0EF02C10615
:101B900048BF42F010025A719A7910F0200F02F0FB
:101BA000EF02194618BF42F010028A71C205054BB8
:101BB00006D55A781978D2B241F0200119705A70BE
:101BC000704700BF00A0064008B5234B1B685B05AB
:101BD00000D408BD214B1B7803F0FF0213B1FFF7BF
:101BE0000DFBF7E71E4B4FF0004119601D4BDA70FB
:101BF0001D4B1B78152B06D01B2B08D05BB940F270
:101C000003121A4B06E040F20312194B02E0194B83
:101C100040F203121A60184B1B7803F07F03052B68
:101C200007D01A2B09D0012B0BD140F20312134B12
:101C300006E040F20312124B02E0124B40F2031294
:101C40001A60114A00231370104A1370104B1B685E
:101C50000BB101221A7008BD348004408C09FF1FAB
:101C600080E100E000A00640CE09FF1F40A0044034
:101C700018C004403C9004406A07FF1F44A0044081
:101C80001CC00440389004400F0AFF1F8D09FF1F3D
:101C90008809FF1F38B50446094B1B7803F0FF0580
:101CA000002BF9D120460121FEF732FC20462946BF
:101CB000FEF70EFC034B53F83420034B1A6038BD7B
:101CC0008C09FF1FEC3E0000140AFF1F10B509B17C
:101CD00040F08000194A1378984214462DD0184AD3
:101CE0001268520528D503F07F03052B06D01A2B66
:101CF00007D0012B08D10022124B04E00022124B26
:101D000001E0124B00221A60002900F07F020CBF94
:101D100044236023052A07D01A2A09D0012A0BD1AF
:101D200043F44073074A06E043F44073064A02E076
:101D3000064A43F440731360207010BD6A07FF1F0A
:101D40003480044044A004401CC004403890044047
:101D5000144A1378984223D01349096849051ED5BF
:101D6000152B05D01B2B06D043B910490B6005E09D
:101D700000210F4B01E00F4B00211960152806D000
:101D80001B2808D058B940F21331084B06E040F246
:101D90001331074B02E0074B40F21331196010700A
:101DA000704700BFCE09FF1F3480044040A00440AC
:101DB00018C004403C9004400D4A38B5146814F42F
:101DC00080624FF0000410D03F280A4D0AD80A4A1A
:101DD000012152F830302B60FEF79AFB2B681C7003
:101DE000012038BD2C60204638BD104638BD00BFEC
:101DF000348004408809FF1FEC3E00000E4B1B6836
:101E000013F4806316D012280C4B03D140F2023138
:101E10000B4A04E0142809D10A4A40F20231116049
:101E20005A7B42F001025A73012070475A7B02F03C
:101E3000FE025A73002070473480044000A0064020
:101E40000CA0044014C00440F8B51D4B1B685A0593
:101E5000064633D51B4B1B680BB101221A701A4B77
:101E60001C780134402C1F4628BF0024174D2B78C6
:101E7000A34218D1FFF7A8FD40280FDC144A1379BC
:101E80001B06F3D52B7813490133402B28BF0023C1
:101E9000C95CDBB2C9B2D1712B70E7E7FF28E5DD81
:101EA000FFF7ACF9E2E70B4BF6B21E550A4B0122E5
:101EB0001A70074BE4B2BC223C70DA70F8BD00BF68
:101EC00034800440140AFF1F180AFF1F100AFF1F66
:101ED00000A006408E09FF1F8C09FF1F274B1B68BF
:101EE0005A052DE9F04707468A4644D5244B1B681E
:101EF0000BB101221A703D4607EB0A039D4237D20F
:101F0000DFF890801F4E98F8004096F8009001345A
:101F1000402C28BF00245FFA89F9A1451DD11A4B36
:101F2000BC22DA70FFF750FD40280FDC164A137907
:101F30001B060FD5337815490133402B28BF0023EA
:101F4000C95CDBB2C9B2D171337003E0FF2801DD97
:101F5000FFF754F933784B45E4D00C4B15F8012BBF
:101F60001A550B4B0122E4B21A7088F80040C3E7FF
:101F7000054BBC22DA70BDE8F08700BF3480044016
:101F8000140AFF1F100AFF1F00A006408E09FF1F42
:101F90008C09FF1F180AFF1F08B5034B1B7813B1EC
:101FA000FFF72CF9F9E708BD8C09FF1F064A074B1C
:101FB0001B781078DBB2C0B283422CBF3F3000F1F7
:101FC000FF30C01A704700BF100AFF1F180AFF1F1A
:101FD000054B1878054B1B78C0B2DBB2984238BF6E
:101FE0004030C01A704700BF0F0AFF1F8D09FF1F46
:101FF00010B5104B10491A780B78D2B2DBB29A4266
:1020000014D00133402B28BF00230C48DCB2C05C45
:102010000C700B490968C0B251B19A4238BF4032C6
:10202000D31A1A2B04DC00230B7010BD4FF0FF30C5
:1020300010BD00BF0F0AFF1F8D09FF1FCF09FF1F33
:102040008809FF1F084B1A78084B1B78DBB29A42AD
:1020500007D00133402B28BF0023054AD05CC0B213
:1020600070474FF0FF3070470F0AFF1F8D09FF1FA9
:10207000CF09FF1F0C4B1B685B0514D50B4BDA789F
:1020800002F0CB02DA7040225A74DA7842F034025D
:10209000DA70074B1A78074BD2B21A70064B1B68DE
:1020A0000BB100221A7070473480044000A0064033
:1020B0008D09FF1F0F0AFF1F8809FF1F30B5374B1F
:1020C0001A7912F0300F31D072B69A7D02F0FF000B
:1020D00022B9DA7940225A7462B627E062B6304AF1
:1020E000304913780978DBB2C9B214462B4AD57946
:1020F0005A1C402A28BF00228A42EDB202D02A4B45
:102100009D541346421E12F0FF00EFD1DAB2227046
:10211000264A126852B18B4236BFC1F14001C1EB71
:1021200003035B18272BC4BF012313701B4BD97803
:10213000C9B20C0620D51B7918061DD51C4B1D4AAB
:102140001D781378EDB2DBB21046AB420CD0134AC7
:102150000133402B1479184C28BF0023E45CE4B20F
:10216000D471127D072AF0D9DBB203700B4B1A79B8
:10217000120644BF7C22DA704B060ED5074B1A7943
:1021800012F0400F194608D00C4B00221A700C4B6D
:102190001B6803B11A703C23CB7030BD00A0064011
:1021A0000F0AFF1F8D09FF1FCF09FF1F8809FF1F9F
:1021B000180AFF1F100AFF1F8E09FF1F8C09FF1F3F
:1021C000140AFF1F234B1A6842F400621A60224A65
:1021D00000231370214A1370214A1370214A13708F
:1021E000214A1370214B1B78092B05D03B2B07D1BB
:1021F00040F213321E4B02E01E4B40F213321A60C3
:102200001D4B1B780A2B05D03A2B07D14FF4517286
:102210001A4B02E01A4B4FF451721A60194BC0F37B
:1022200044321A70C0F347125A700421022200F09F
:102230001F0098729970DA745975882119743C21BD
:10224000D970114B402119706FF447710B441A601B
:10225000704700BF348004408A0AFF1F210AFF1F15
:10226000900AFF1F8B0AFF1F200AFF1F6B07FF1F2B
:1022700004D004400CB004406C07FF1F00D00440A1
:1022800010B0044000B0064021E400E0194A937801
:1022900000F0030103F0EC030B43410748BF43F098
:1022A0001003937000F00F03042B124903D18B79B4
:1022B00043F040038B7152790E4B02F0EF02C106DE
:1022C00048BF42F010025A719A7910F0200F02F0C4
:1022D000EF02194618BF42F010028A71C205054B81
:1022E00006D55A781978D2B241F0200119705A7087
:1022F000704700BF00B0064008B51C4B1B681B05AB
:1023000000D408BD1A4B1A7802F0FF0312B1FEF791
:1023100075FFF7E7174A02211160174AD370174A71
:102320001278092A04D03B2A06D1154A136003E02B
:10233000144B40F203121A60134B1B7803F07F0317
:102340000A2B04D03A2B06D10022104B02E0104B8E
:1023500040F203121A600F4A002313700E4A1370E2
:102360000E4B1B680BB101221A7008BD348004406B
:10237000200AFF1F84E100E000B006406B07FF1F4A
:1023800004D004400CB004406C07FF1F00D0044090
:1023900010B004408A0AFF1F210AFF1F1C0AFF1FFA
:1023A00038B50446094B1B7803F0FF05002BF9D123
:1023B00020460121FEF7ACF820462946FEF788F8B2
:1023C000034B53F83420034B1A6038BD200AFF1F1B
:1023D000EC3E00008C0AFF1F10B509B140F08000F0
:1023E000144A13789842144622D0134A12681205F0
:1023F0001DD503F07F030A2B04D03A2B05D1002210
:102400000E4B01E00E4B00221A60002900F07F0203
:102410000CBF442360230A2A05D03A2A07D143F48B
:102420004073064A02E0064A43F44073136020708A
:1024300010BD00BF6C07FF1F3480044000D0044073
:1024400010B004400F4A137898421AD00E49096818
:10245000090515D5092B04D03B2B05D100210B4BC9
:1024600001E00B4B00211960092805D03B2807D15A
:1024700040F21331054B02E0054B40F21331196075
:10248000107070476B07FF1F3480044004D0044075
:102490000CB004400D4A38B5146814F400624FF0D3
:1024A000000410D03F280A4D0AD80A4A012152F8E8
:1024B00030302B60FEF72CF82B681C70012038BDE3
:1024C0002C60204638BD104638BD00BF3480044023
:1024D0001C0AFF1FEC3E00000E4B1B6813F4006348
:1024E00016D017280C4B03D140F202310B4A04E0FE
:1024F0003C2809D10A4A40F2023111605A7B42F06D
:1025000001025A73012070475A7B02F0FE025A738F
:10251000002070473480044000B0064008B00440FA
:1025200008D00440F8B51D4B1B681A05064633D584
:102530001B4B1B680BB101221A701A4B1C7801341B
:10254000282C1F4628BF0024174D2B78A34218D1F2
:10255000FFF73AFA40280FDC144A13791B06F3D52B
:102560002B7813490133282B28BF0023C95CDBB229
:10257000C9B2D1712B70E7E7FF28E5DDFEF73EFE1B
:10258000E2E70B4BF6B21E550A4B01221A70074BBD
:10259000E4B2BC223C70DA70F8BD00BF3480044065
:1025A0008C0AFF1F900AFF1F8B0AFF1F00B0064016
:1025B000220AFF1F200AFF1F274B1B681A052DE95F
:1025C000F04707468A4644D5244B1B680BB10122CD
:1025D0001A703D4607EB0A039D4237D2DFF8908020
:1025E0001F4E98F8004096F800900134282C28BF20
:1025F00000245FFA89F9A1451DD11A4BBC22DA707B
:10260000FFF7E2F940280FDC164A13791B060FD5B5
:10261000337815490133282B28BF0023C95CDBB26E
:10262000C9B2D171337003E0FF2801DDFEF7E6FD8A
:1026300033784B45E4D00C4B15F8012B1A550B4B56
:102640000122E4B21A7088F80040C3E7054BBC22AF
:10265000DA70BDE8F08700BF348004408C0AFF1FA9
:102660008B0AFF1F00B00640220AFF1F200AFF1F2F
:10267000900AFF1F08B5034B1B7813B1FEF7BEFD90
:10268000F9E708BD200AFF1F064A074B1B781078A0
:10269000DBB2C0B283422CBF273000F1FF30C01A3A
:1026A000704700BF8B0AFF1F900AFF1F054B187869
:1026B000054B1B78C0B2DBB2984238BF4030C01A1D
:1026C000704700BF8A0AFF1F210AFF1F10B5104B79
:1026D00010491A780B78D2B2DBB29A4214D0013387
:1026E000402B28BF00230C48DCB2C05C0C700B49A7
:1026F0000968C0B251B19A4238BF4032D31A1A2B7E
:1027000004DC00230B7010BD4FF0FF3010BD00BF84
:102710008A0AFF1F210AFF1F4A0AFF1F1C0AFF1F08
:10272000084B1A78084B1B78DBB29A4207D001336A
:10273000402B28BF0023054AD05CC0B270474FF041
:10274000FF3070478A0AFF1F210AFF1F4A0AFF1F36
:102750000C4B1B681B0514D50B4BDA7802F0CB022F
:10276000DA7040225A74DA7842F03402DA70074B99
:102770001A78074BD2B21A70064B1B680BB10022B5
:102780001A7070473480044000B00640210AFF1FD1
:102790008A0AFF1F1C0AFF1F30B5374B1A7912F047
:1027A000300F31D072B69A7D02F0FF0022B9DA798B
:1027B00040225A7462B627E062B6304A3049137834
:1027C0000978DBB2C9B214462B4AD5795A1C402A83
:1027D00028BF00228A42EDB202D02A4B9D541346F4
:1027E000421E12F0FF00EFD1DAB22270264A1268C0
:1027F00052B18B4236BFC1F14001C1EB03035B18FC
:10280000272BC4BF012313701B4BD978C9B20C0608
:1028100020D51B7918061DD51C4B1D4A1D78137831
:10282000EDB2DBB21046AB420CD0134A0133282B79
:102830001479184C28BF0023E45CE4B2D471127DF3
:10284000072AF0D9DBB203700B4B1A79120644BF8A
:102850007C22DA704B060ED5074B1A7912F0400F26
:10286000194608D00C4B00221A700C4B1B6803B1A0
:102870001A703C23CB7030BD00B006408A0AFF1F9F
:10288000210AFF1F4A0AFF1F1C0AFF1F900AFF1F91
:102890008B0AFF1F220AFF1F200AFF1F8C0AFF1F3F
:1028A000164B1A6842F480521A60154A00231370BE
:1028B000144A1370144A1370144A1370144A137094
:1028C000144A40F2133111604FF451715160124AB1
:1028D000C0F344311170C0F3471100F01F00517074
:1028E0009072937013742C23D3700C4B40221A7087
:1028F000A3F21F3308221A60704700BF34800440DF
:10290000020BFF1F990AFF1F080BFF1F030BFF1F7E
:10291000980AFF1F08C0044000C0064023E400E0FE
:10292000194A937800F0030103F0EC030B434107CD
:1029300048BF43F01003937000F00F03042B1249BB
:1029400003D18B7943F040038B7152790E4B02F027
:10295000EF02C10648BF42F010025A719A7910F096
:10296000200F02F0EF02194618BF42F010028A71E0
:10297000C205054B06D55A781978D2B241F020012C
:1029800019705A70704700BF00C0064008B5124B5E
:102990001B68DB0400D408BD104B1A7802F0FF035B
:1029A00012B1FEF72BFCF7E70D4A082111600D4A22
:1029B00001F1804101F59821D37040F203120A60C1
:1029C0004A60094A1370094A1370094B1B680BB11E
:1029D00001221A7008BD00BF34800440980AFF1F0E
:1029E00084E100E000C00640020BFF1F990AFF1FB0
:1029F000940AFF1F38B50446094B1B7803F0FF0506
:102A0000002BF9D120460121FDF782FD2046294601
:102A1000FDF75EFD034B53F83420034B1A6038BDBD
:102A2000980AFF1FEC3E0000040BFF1F10B509B110
:102A300040F080000E4A1378984217D00D4C24685D
:102A4000E40412D503F07F03082B02D10A4B0024C3
:102A50001C60002900F07F030CBF44216021082B7B
:102A600003D1054B41F440711960107010BD00BFD7
:102A70006D07FF1F348004400CC004407047FFFF07
:102A80000D4A38B5146814F480524FF0000410D089
:102A90003F280A4D0AD80A4A012152F830302B60EB
:102AA000FDF736FD2B681C70012038BD2C602046D8
:102AB00038BD104638BD00BF34800440940AFF1F63
:102AC000EC3E00000B4B1B6813F4805310D00E2813
:102AD000094B09D1094A40F2023111605A7B42F098
:102AE00001025A73012070475A7B02F0FE025A73AA
:102AF000002070473480044000C0064004C00440F9
:102B0000F8B51D4B1B68DA04064633D51B4B1B6812
:102B10000BB101221A701A4B1C780134282C1F4665
:102B200028BF0024174D2B78A34218D1FEF74CFF85
:102B300040280FDC144A13791B06F3D52B78134970
:102B40000133282B28BF0023C95CDBB2C9B2D17185
:102B50002B70E7E7FF28E5DDFEF750FBE2E70B4BC4
:102B6000F6B21E550A4B01221A70074BE4B2AC2292
:102B70003C70DA70F8BD00BF34800440040BFF1FC6
:102B8000080BFF1F030BFF1F00C006409A0AFF1F20
:102B9000980AFF1F38B504464518AC4204D014F813
:102BA000010BFFF7ADFFF8E738BDFFFF08B5034B9A
:102BB0001B7813B1FEF722FBF9E708BD980AFF1F47
:102BC000064A074B1B781078DBB2C0B283422CBF99
:102BD000273000F1FF30C01A704700BF030BFF1F02
:102BE000080BFF1F054B1878054B1B78C0B2DBB2F2
:102BF000984238BF4030C01A704700BF020BFF1F19
:102C0000990AFF1F10B5104B10491A780B78D2B2F1
:102C1000DBB29A4214D00133402B28BF00230C486A
:102C2000DCB2C05C0C700B490968C0B251B19A4269
:102C300038BF4032D31A1A2B04DC00230B7010BDAE
:102C40004FF0FF3010BD00BF020BFF1F990AFF1F9E
:102C5000C20AFF1F940AFF1F084B1A78084B1B7803
:102C6000DBB29A4207D00133402B28BF0023054A2C
:102C7000D05CC0B270474FF0FF307047020BFF1FAF
:102C8000990AFF1FC20AFF1F054B1A78054BD2B2E3
:102C90001A70054B1B680BB100221A70704700BFF9
:102CA000990AFF1F020BFF1F940AFF1F10B5294B43
:102CB0001A79920620D5284AD87913782749013302
:102CC000402B097828BF00238B42C0B203D024498F
:102CD000C854D9B21170234A116869B1224A1278D6
:102CE000D2B2934236BFC2F14002C2EB03039B183B
:102CF000272BC4BF01230B70164AD178C9B20C062A
:102D000016D51379180613D5184B17481C78037875
:102D1000DBB29C4202D16C23D37009E00133282B33
:102D200028BF0023124CE45CDBB2E4B2D471037020
:102D30004B060ED5074B1A7912F0400F194608D0F2
:102D40000C4B00221A700C4B1B6803B11A702C2319
:102D5000CB7010BD00C00640020BFF1F990AFF1F79
:102D6000C20AFF1F940AFF1F030BFF1F080BFF1F60
:102D70009A0AFF1F980AFF1F040BFF1F214B1A68B6
:102D800042F400521A60204A002313701F4A137045
:102D90001F4A13701F4A13701F4A13701F4B1B7872
:102DA0001F2B05D03F2B07D140F213321C4B02E002
:102DB0001C4B40F213321A601B4B1B78202B05D0A2
:102DC0003E2B07D14FF45172184B02E0184B4FF4D1
:102DD00051721A60174BC0F344321A70C0F3471295
:102DE0005A7000F01F00002298729A701A742C22F8
:102DF000DA70114B40226FF448711A700B44202294
:102E00001A607047348004407A0BFF1F110BFF1FBC
:102E1000800BFF1F7B0BFF1F100BFF1F6E07FF1F99
:102E200014D0044028A004406F07FF1F10D00440B6
:102E30002CA0044000D0064025E400E0194A937815
:102E400000F0030103F0EC030B43410748BF43F0DC
:102E50001003937000F00F03042B124903D18B79F8
:102E600043F040038B7152790E4B02F0EF02C10622
:102E700048BF42F010025A719A7910F0200F02F008
:102E8000EF02194618BF42F010028A71C205054BC5
:102E900006D55A781978D2B241F0200119705A70CB
:102EA000704700BF00D0064008B51C4B1B689B0450
:102EB00000D408BD1A4B1A7802F0FF0312B1FEF7D6
:102EC0009DF9F7E7174A20211160174AD370174A76
:102ED00012781F2A04D03F2A06D1154A136003E056
:102EE000144B40F203121A60134B1B7803F07F035C
:102EF000202B04D03E2B06D10022104B02E0104BB9
:102F000040F203121A600F4A002313700E4A137026
:102F10000E4B1B680BB101221A7008BD34800440AF
:102F2000100BFF1F84E100E000D006406E07FF1F7A
:102F300014D0044028A004406F07FF1F10D00440A5
:102F40002CA004407A0BFF1F110BFF1F0C0BFF1F5F
:102F500038B50446094B1B7803F0FF05002BF9D167
:102F600020460121FDF7D4FA20462946FDF7B0FAA4
:102F7000034B53F83420034B1A6038BD100BFF1F6E
:102F8000EC3E00007C0BFF1F10B509B140F0800043
:102F9000144A13789842144622D0134A12689204B5
:102FA0001DD503F07F03202B04D03E2B05D100223A
:102FB0000E4B01E00E4B00221A60002900F07F0248
:102FC0000CBF44236023202A05D03E2A07D143F4B6
:102FD0004073064A02E0064A43F4407313602070CF
:102FE00010BD00BF6F07FF1F3480044010D00440A5
:102FF0002CA004400F4A137898421AD00E49096851
:10300000890415D51F2B04D03F2B05D100210B4B74
:1030100001E00B4B002119601F2805D03F2807D184
:1030200040F21331054B02E0054B40F213311960B9
:10303000107070476E07FF1F3480044014D00440A6
:1030400028A004400D4A38B5146814F400524FF01B
:10305000000410D03F280A4D0AD80A4A012152F82C
:1030600030302B60FDF754FA2B681C70012038BDFE
:103070002C60204638BD104638BD00BF3480044067
:103080000C0BFF1FEC3E000000207047F8B51D4BF5
:103090001B689A04064633D51B4B1B680BB10122F3
:1030A0001A701A4B1C780134282C1F4628BF0024A4
:1030B000174D2B78A34218D1FEF786FC40280FDC71
:1030C000144A13791B06F3D52B7813490133282BA7
:1030D00028BF0023C95CDBB2C9B2D1712B70E7E70E
:1030E000FF28E5DDFEF78AF8E2E70B4BF6B21E5546
:1030F0000A4B01221A70074BE4B2AC223C70DA7022
:10310000F8BD00BF348004407C0BFF1F800BFF1F05
:103110007B0BFF1F00D00640120BFF1F100BFF1F81
:1031200038B504464518AC4204D014F8010BFFF73B
:10313000ADFFF8E738BDFFFF08B5034B1B7813B1AF
:10314000FEF75CF8F9E708BD100BFF1F064A074BB6
:103150001B781078DBB2C0B283422CBF273000F15D
:10316000FF30C01A704700BF7B0BFF1F800BFF1F93
:10317000054B1878054B1B78C0B2DBB2984238BFBC
:103180004030C01A704700BF7A0BFF1F110BFF1FA2
:1031900010B5104B10491A780B78D2B2DBB29A42B4
:1031A00014D00133402B28BF00230C48DCB2C05C94
:1031B0000C700B490968C0B251B19A4238BF403215
:1031C000D31A1A2B04DC00230B7010BD4FF0FF3014
:1031D00010BD00BF7A0BFF1F110BFF1F3A0BFF1F23
:1031E0000C0BFF1F084B1A78084B1B78DBB29A4276
:1031F00007D00133402B28BF0023054AD05CC0B262
:1032000070474FF0FF3070477A0BFF1F110BFF1F05
:103210003A0BFF1F054B1A78054BD2B21A70054BBB
:103220001B680BB100221A70704700BF110BFF1F03
:103230007A0BFF1F0C0BFF1F10B5294B1A79920652
:1032400020D5284AD879137827490133402B0978AB
:1032500028BF00238B42C0B203D02449C854D9B23E
:103260001170234A116869B1224A1278D2B293428E
:1032700036BFC2F14002C2EB03039B18272BC4BF29
:1032800001230B70164AD178C9B20C0616D51379F2
:10329000180613D5184B17481C780378DBB29C42EC
:1032A00002D16C23D37009E00133282B28BF0023FF
:1032B000124CE45CDBB2E4B2D47103704B060ED561
:1032C000074B1A7912F0400F194608D00C4B002218
:1032D0001A700C4B1B6803B11A702C23CB7010BDF5
:1032E00000D006407A0BFF1F110BFF1F3A0BFF1F88
:1032F0000C0BFF1F7B0BFF1F800BFF1F120BFF1F11
:10330000100BFF1F7C0BFF1F164B1A6842F48062E4
:103310001A60154A00231370144A1370144A13706C
:10332000144A1370144A1370144A40F21331116096
:103330004FF4517142F8041C114AC0F3443111702A
:10334000C0F3471100F01F00517090729370137416
:103350002C23D3700B4B40221A70A3F23A33042271
:103360001A60704728800440F20BFF1F890BFF1F73
:10337000F80BFF1FF30BFF1F880BFF1F64D00440E7
:1033800000A00E4042E400E0194A937800F00301E7
:1033900003F0EC030B43410748BF43F01003937065
:1033A00000F00F03042B124903D18B7943F0400343
:1033B0008B7152790E4B02F0EF02C10648BF42F00A
:1033C00010025A719A7910F0200F02F0EF0219469C
:1033D00018BF42F010028A71C205054B06D55A7813
:1033E0001978D2B241F0200119705A70704700BFAD
:1033F00000A00E4008B5114B1B685B0500D408BD4A
:103400000F4B1A7802F0FF0312B1FDF7F7FEF7E752
:103410000C4A042111600C4A0C49D37040F203128B
:103420000A6041F8042C0A4A13700A4A13700A4BC6
:103430001B680BB101221A7008BD00BF2880044030
:10344000880BFF1F88E100E000A00E4064D004401C
:10345000F20BFF1F890BFF1F840BFF1F38B50446BB
:10346000094B1B7803F0FF05002BF9D12046012101
:10347000FDF74EF820462946FDF72AF8034B53F88E
:103480003420034B1A6038BD880BFF1FEC3E000050
:10349000F40BFF1F10B509B140F080000E4A1378FD
:1034A000984217D00D4C2468640512D503F07F03B1
:1034B000212B02D10A4B00241C60002900F07F035D
:1034C0000CBF44216021212B03D1054B41F44071F5
:1034D0001960107010BD00BF7007FF1F28800440E6
:1034E00060D004407047FFFF0D4A38B5146814F4EB
:1034F00080624FF0000410D03F280A4D0AD80A4AD3
:10350000012152F830302B60FDF702F82B681C7057
:10351000012038BD2C60204638BD104638BD00BFA4
:1035200028800440840BFF1FEC3E00000B4B1B68FF
:1035300013F4806310D01828094B09D1094A40F2CE
:10354000023111605A7B42F001025A730120704728
:103550005A7B02F0FE025A73002070472880044014
:1035600000A00E4068D00440F8B51D4B1B685A05FA
:10357000064633D51B4B1B680BB101221A701A4B40
:103580001C780134282C1F4628BF0024174D2B78A7
:10359000A34218D1FEF718FA40280FDC144A137919
:1035A0001B06F3D52B7813490133282B28BF0023A2
:1035B000C95CDBB2C9B2D1712B70E7E7FF28E5DD4A
:1035C000FDF71CFEE2E70B4BF6B21E550A4B01223B
:1035D0001A70074BE4B2AC223C70DA70F8BD00BF41
:1035E00028800440F40BFF1FF80BFF1FF30BFF1F95
:1035F00000A00E408A0BFF1F880BFF1F38B5044642
:103600004518AC4204D014F8010BFFF7ADFFF8E702
:1036100038BDFFFF08B5034B1B7813B1FDF7EEFD76
:10362000F9E708BD880BFF1F064A074B1B78107887
:10363000DBB2C0B283422CBF273000F1FF30C01A8A
:10364000704700BFF30BFF1FF80BFF1F054B1878E7
:10365000054B1B78C0B2DBB2984238BF4030C01A6D
:10366000704700BFF20BFF1F890BFF1F10B5104BF7
:1036700010491A780B78D2B2DBB29A4214D00133D7
:10368000402B28BF00230C48DCB2C05C0C700B49F7
:103690000968C0B251B19A4238BF4032D31A1A2BCE
:1036A00004DC00230B7010BD4FF0FF3010BD00BFD5
:1036B000F20BFF1F890BFF1FB20BFF1F840BFF1FB5
:1036C000084B1A78084B1B78DBB29A4207D00133BB
:1036D000402B28BF0023054AD05CC0B270474FF092
:1036E000FF307047F20BFF1F890BFF1FB20BFF1F4C
:1036F000054B1A78054BD2B21A70054B1B680BB1FB
:1037000000221A70704700BF890BFF1FF20BFF1FCA
:10371000840BFF1F10B5294B1A79920620D5284A31
:10372000D879137827490133402B097828BF002323
:103730008B42C0B203D02449C854D9B21170234A75
:10374000116869B1224A1278D2B2934236BFC2F1EF
:103750004002C2EB03039B18272BC4BF01230B704D
:10376000164AD178C9B20C0616D51379180613D5A6
:10377000184B17481C780378DBB29C4202D16C23AB
:10378000D37009E00133282B28BF0023124CE45CDE
:10379000DBB2E4B2D47103704B060ED5074B1A7935
:1037A00012F0400F194608D00C4B00221A700C4B37
:1037B0001B6803B11A702C23CB7010BD00A00E4003
:1037C000F20BFF1F890BFF1FB20BFF1F840BFF1FA4
:1037D000F30BFF1FF80BFF1F8A0BFF1F880BFF1F48
:1037E000F40BFF1F444B1A6842F010022DE9F04120
:1037F0001A60424A136803F44033B3F5403F9046E1
:1038000006D03F4A3F4EB3F5803F08BF164600E062
:103810003D4E4FEA800CB6FBFCF292B2002A68D013
:103820009100B6FBF1F1091A08D0541CA300B6FBB5
:10383000F3F3C31A8B423CBFA2B219468444052558
:103840000427B6FBFCF39BB2F3B103FB05F4B6FB14
:10385000F4F4241A8C4203D874B121462F461A4638
:1038600001339BB203FB05F4B6FBF4F4041B8C425A
:1038700002D90C46134600E02F460135212D844421
:1038800003D021461A46DCE713467A1E02F01F02D7
:10389000C3F30C0343EA0263072F1C4A1C4998BF79
:1038A00043F400331360D8F8003043F08063C8F865
:1038B000003000230B7017490B7017490B70174924
:1038C0000B7017490B70174940F21350086040F213
:1038D00044504860936013615360936843F430131D
:1038E0009360114B40221A70A3F24E334FF48002C2
:1038F0001A60BDE8F08100BF2C80044004800440C1
:103900000095BA0A40A5AE02006CDC0200400C40F3
:103910006A0CFF1F010CFF1F700CFF1F6B0CFF1FB9
:10392000000CFF1F20C0044056E400E01B4A9368CF
:1039300000F0030123F013030B4310F0040F1146B2
:1039400018BF43F010038B6000F00F03042B134AE1
:1039500003D1936843F08043936010F0080F0F4B3E
:1039600003D01A6842F000521A605B68C20623F066
:1039700080530A4A48BF43F08053536093688106DE
:1039800023F0805348BF43F080539360C30503493D
:1039900003D50B6843F400530B60704700400C40A4
:1039A00008B5114B1B68DB0600D408BD0F4B1A7815
:1039B00002F0FF0312B1FDF721FCF7E70C4A4FF4C8
:1039C000800111600B4A0C49936040F203120A60B7
:1039D0004A600A4A13700A4A13700A4B1B680BB1FB
:1039E00001221A7008BD00BF2C800440000CFF1F8C
:1039F00088E100E000400C4020C004406A0CFF1F3A
:103A0000010CFF1FFC0BFF1F38B50446094B1B7848
:103A100003F0FF05002BF9D120460121FCF778FDCA
:103A200020462946FCF754FD034B53F83420034B42
:103A30001A6038BD000CFF1FEC3E00006C0CFF1F2D
:103A400010B509B140F080000E4A1378984217D0A3
:103A50000D4C2468E40612D503F07F03302B02D10D
:103A60000A4B00241C60002900F07F030CBF442196
:103A70006021302B03D1054B41F4A0611960107017
:103A800010BD00BF7107FF1F2C80044024C00440FC
:103A90007047FFFF0D4A38B5146814F010024FF05C
:103AA000000410D03F280A4D0AD80A4A012152F8D2
:103AB00030302B60FCF72CFD2B681C70012038BDCA
:103AC0002C60204638BD104638BD00BF2C80044015
:103AD000FC0BFF1FEC3E00000B4B1B6813F01003A8
:103AE00010D03828094B09D1094A40F2025111601F
:103AF0005A7B42F001025A73012070475A7B02F050
:103B0000FE025A73002070472C80044000B00E4023
:103B100028D00440F8B51C4B1B68DA06064632D59F
:103B20001A4B1B680BB101221A70194B1C78013417
:103B3000282C1F4628BF0024164D2B78A34218D1ED
:103B4000FDF742FF40280FDC134A53681B02F3D5F0
:103B50002B7812490133282B28BF0023C95CDBB224
:103B6000C9B2D1602B70E7E7FF28E5DDFDF746FB22
:103B7000E2E70A4B0A4AF6B21E5501231370094ABE
:103B8000E4B23C701360F8BD2C8004406C0CFF1F45
:103B9000700CFF1F6B0CFF1F00400C40020CFF1F3E
:103BA000000CFF1F5C01884338B504464518AC4241
:103BB00004D014F8010BFFF7ADFFF8E738BDFFFFA5
:103BC00008B5034B1B7813B1FDF718FBF9E708BDE7
:103BD000000CFF1F064A074B1B781078DBB2C0B2FF
:103BE00083422CBF273000F1FF30C01A704700BF5E
:103BF0006B0CFF1F700CFF1F054B1878054B1B78D3
:103C0000C0B2DBB2984238BF4030C01A704700BF24
:103C10006A0CFF1F010CFF1F10B5104B10491A78DA
:103C20000B78D2B2DBB29A4214D00133402B28BFBA
:103C300000230C48DCB2C05C0C700B490968C0B2B0
:103C400051B19A4238BF4032D31A1A2B04DC0023F8
:103C50000B7010BD4FF0FF3010BD00BF6A0CFF1F8E
:103C6000010CFF1F2A0CFF1FFC0BFF1F084B1A78CB
:103C7000084B1B78DBB29A4207D00133402B28BF98
:103C80000023054AD05CC0B270474FF0FF30704748
:103C90006A0CFF1F010CFF1F2A0CFF1F054B1A782F
:103CA000054BD2B21A70054B1B680BB100221A707B
:103CB000704700BF010CFF1F6A0CFF1FFC0BFF1FAA
:103CC00010B52A4B5A68920220D5294AD868137831
:103CD00028490133402B097828BF00238B4204D0A8
:103CE0002549C0B2C854D9B21170244A116869B1CB
:103CF000234A1278D2B2934236BFC2F14002C2EBDD
:103D000003039B18272BC4BF01230B70174A91682C
:103D10000C021AD55368180217D51A4B18481C788C
:103D20000378DBB29C4206D1174B00221A600122B5
:103D300043F8042C09E00133282B28BF0023134C3F
:103D4000E45CDBB2E4B2D46003704A020CD5074BEA
:103D50005B685B0208D50E4A002313700D4A126897
:103D600002B113700C4A136010BD00BF00400C403C
:103D70006A0CFF1F010CFF1F2A0CFF1FFC0BFF1F0B
:103D80006B0CFF1F700CFF1F5C018843020CFF1FB0
:103D9000000CFF1F6C0CFF1F5801884330B585B025
:103DA00072B6FDF731FE154B154970221A70154A8F
:103DB000116080221A701A781206FCD5124B1C680A
:103DC000FDF73EFE62B6114B9C429CBF0A235C434A
:103DD00001AD204629460A2200F03CF80023E95CA8
:103DE0000B4A29B102EB430001330A2B4180F6D183
:103DF00001335B00137005B030BD00BF000002400E
:103E000000000741040002400C0002407F96980029
:103E1000FA07FF1FFDF702B9FDF7BEB8FDF7E2B8DC
:103E2000FDF79AB9FDF708B90846FDF789B90846C4
:103E30001146FDF719B97047044B00221A714FF46F
:103E40007A711A73024A99601A607047740CFF1FE6
:103E50009043000010B50023B0FBF2F402FB140005
:103E6000092894BF30303730C0B2C85420460CB156
:103E70000133F1E7CA18547022469A4206DA885C88
:103E8000CC5C8C54C8540132013BF6E7084610BDA7
:103E900070B50E4B0E4DED1AAD1000241E46AC420F
:103EA00004D056F8242090470134F8E700F080FA57
:103EB000084D094BED1AAD1000241E46AC4204D04B
:103EC00056F8242090470134F8E770BDBC43000049
:103ED000BC430000DC430000BC430000034613F871
:103EE000012B002AFBD1181A013870474008FE4305
:103EF00040A004404408FE4344A004400018FE4390
:103F000000C004403000FE43309004403400FE43C3
:103F1000349004401C18FE431CC004401018FE439B
:103F200010C004400818FE4308C004400C18FE43AB
:103F30000CC004400C10FE430CB004401010FE43B3
:103F400010B004401810FE4318B004401C10FE438B
:103F50001CB004401410FE4314B004400418FE4387
:103F600004C004400010FE4300B004400008FE43BB
:103F700000A004400408FE4304A004400C08FE43D3
:103F80000CA004400808FE4308A004401418FE4397
:103F900014C004401818FE4318C004400410FE4327
:103FA00004B004400810FE4308B004406820FE43FB
:103FB00068D004401400FE43149004403800FE43CF
:103FC000389004403C00FE433C9004404000FE43D7
:103FD000409004404808FE4348A004404C08FE437B
:103FE0004CA004402808FE4328A004402C08FE43AF
:103FF0002CA004406020FE4360D004406420FE43B7
:1040000064D004402010FE4320B004402410FE433E
:1040100024B004402810FE4328B004402C10FE4376
:104020002CB004404400FE43449004407000FE4322
:10403000709004407400FE43749004406800FE4396
:10404000689004405008FE4350A004405808FE43C6
:1040500058A004405C08FE435CA004405408FE43A2
:1040600054A004402018FE4320C004402418FE43FE
:1040700024C004401008FE4310A004401408FE436E
:1040800014A004403818FE4338C004403418FE43DE
:1040900034C004403018FE4330C004403C18FE4396
:1040A0003CC004402C18FE432CC004402820FE4392
:1040B00028D004402C20FE432CD004400020FE4396
:1040C00000D004400420FE4304D004400820FE43F6
:1040D00008D004400C20FE430CD004401020FE43C6
:1040E00010D004401420FE4314D00440FFFFFFFF13
:1040F00000000000000000000D1300002513000068
:10410000F5120000FD120000F9120000011300007A
:10411000891200009D120000BD120000C1120000B3
:10412000C7120000CD120000D5120000E5120000F9
:104130000513000009130000591200006512000069
:10414000711200007D1200003513000019130000E9
:1041500000000000000000002114000039140000DD
:1041600009140000111400000D14000015140000C3
:104170009D130000B1130000D1130000D5130000FF
:10418000DB130000E1130000E9130000F913000045
:10419000191400001D1400006D13000079130000B5
:1041A0008513000091130000491400002D14000035
:1041B0000000000000000000351500004D15000053
:1041C0001D1500002515000021150000291500000F
:1041D000B1140000C5140000E5140000E91400004B
:1041E000EF140000F5140000FD1400000D15000090
:1041F0002D15000031150000811400008D14000001
:1042000099140000A51400005D1500004115000080
:1042100000000000000000004916000061160000C8
:104220003116000039160000351600003D1600005A
:10423000C5150000D9150000F9150000FD15000096
:1042400003160000091600001116000021160000D8
:10425000411600004516000095150000A11500004C
:10426000AD150000B91500007116000055160000CC
:1042700000000000000000005D170000751700003E
:10428000451700004D1700004917000051170000A6
:10429000D9160000ED1600000D17000011170000E0
:1042A000171700001D170000251700003517000024
:1042B0005517000059170000A9160000B516000098
:1042C000C1160000CD160000851700006917000018
:1042D0000000000000000000571800006F180000E8
:1042E0003F18000047180000431800004B1800005A
:1042F000ED170000F3170000071800000B1800006E
:1043000011180000171800001F1800002F180000D7
:104310004F18000053180000BD170000C917000017
:10432000D5170000E11700007F1800006318000097
:1043300000151915000100007207FF1F1200000090
:10434000000200009C07FF1F430000000003000064
:10435000F607FF1F00000000010309048407FF1F88
:104360000000000002030904E007FF1F0000000036
:1043700003030904FA07FF1F00000000000000000B
:10438000000000000000000000000000000000002D
:10439000293E00002F3E0000153E0000193E00009F
:1043A0001D3E0000213E0000253E000000000000F0
:1043B000F8B500BFF8BC08BC9E4670473504000045
:1043C0005113000065140000791500008D160000DF
:0C43D000A117000099180000393E000001
:1043DC000D000000FFFFFFFF0A0401090A081F205F
:1043EC0021301201010102000040C01683040002BA
:1043FC000102030118035400650065006E00730090
:10440C0079006400750069006E006F0009024300BA
:10441C00020100C03209040000010202010005245F
:10442C0000100105240101010424020605240600E4
:10443C00010705820310004009040100020A000074
:10444C00000705030240000007058402400000003D
:10445C001603550053004200200053006500720003
:10446C00690061006C00040309040C0300000000E7
:10447C000000000000000000000000000000000030
:00000001FF
